{
  "_format": "hh-sol-artifact-1",
  "contractName": "BargoMultiPay",
  "sourceName": "contracts/BargoMultiPay.sol",
  "abi": [
    {
      "anonymous": false,
      "inputs": [
        {
          "indexed": true,
          "internalType": "contract IERC20",
          "name": "token",
          "type": "address"
        },
        {
          "indexed": false,
          "internalType": "address",
          "name": "to",
          "type": "address"
        },
        {
          "indexed": false,
          "internalType": "uint256",
          "name": "amount",
          "type": "uint256"
        }
      ],
      "name": "IERC20PayedEvent",
      "type": "event"
    },
    {
      "anonymous": false,
      "inputs": [
        {
          "indexed": true,
          "internalType": "address",
          "name": "previousOwner",
          "type": "address"
        },
        {
          "indexed": true,
          "internalType": "address",
          "name": "newOwner",
          "type": "address"
        }
      ],
      "name": "OwnershipTransferred",
      "type": "event"
    },
    {
      "anonymous": false,
      "inputs": [
        {
          "indexed": false,
          "internalType": "address",
          "name": "from",
          "type": "address"
        },
        {
          "indexed": false,
          "internalType": "uint256",
          "name": "amount",
          "type": "uint256"
        }
      ],
      "name": "PaymentReceived",
      "type": "event"
    },
    {
      "inputs": [],
      "name": "getTotalReleased",
      "outputs": [
        {
          "internalType": "uint256",
          "name": "",
          "type": "uint256"
        }
      ],
      "stateMutability": "view",
      "type": "function"
    },
    {
      "inputs": [],
      "name": "owner",
      "outputs": [
        {
          "internalType": "address",
          "name": "",
          "type": "address"
        }
      ],
      "stateMutability": "view",
      "type": "function"
    },
    {
      "inputs": [
        {
          "internalType": "contract IERC20",
          "name": "token",
          "type": "address"
        },
        {
          "internalType": "address[]",
          "name": "accounts",
          "type": "address[]"
        },
        {
          "internalType": "uint256[]",
          "name": "shares",
          "type": "uint256[]"
        },
        {
          "internalType": "uint256",
          "name": "fee",
          "type": "uint256"
        }
      ],
      "name": "payAll",
      "outputs": [],
      "stateMutability": "nonpayable",
      "type": "function"
    },
    {
      "inputs": [],
      "name": "renounceOwnership",
      "outputs": [],
      "stateMutability": "nonpayable",
      "type": "function"
    },
    {
      "inputs": [
        {
          "internalType": "contract IERC20",
          "name": "token",
          "type": "address"
        }
      ],
      "name": "thisTokenBalance",
      "outputs": [
        {
          "internalType": "uint256",
          "name": "",
          "type": "uint256"
        }
      ],
      "stateMutability": "view",
      "type": "function"
    },
    {
      "inputs": [
        {
          "internalType": "address",
          "name": "newOwner",
          "type": "address"
        }
      ],
      "name": "transferOwnership",
      "outputs": [],
      "stateMutability": "nonpayable",
      "type": "function"
    },
    {
      "stateMutability": "payable",
      "type": "receive"
    }
  ],
  "bytecode": "0x608060405234801561001057600080fd5b5061002d61002261003260201b60201c565b61003a60201b60201c565b6100fe565b600033905090565b60008060009054906101000a900473ffffffffffffffffffffffffffffffffffffffff169050816000806101000a81548173ffffffffffffffffffffffffffffffffffffffff021916908373ffffffffffffffffffffffffffffffffffffffff1602179055508173ffffffffffffffffffffffffffffffffffffffff168173ffffffffffffffffffffffffffffffffffffffff167f8be0079c531659141344cd1fd0a4f28419497f9722a3daafe3b4186f6b6457e060405160405180910390a35050565b6116e18061010d6000396000f3fe6080604052600436106100595760003560e01c80631262f2db146100a5578063151a24d1146100ce5780634b14c0ef1461010b578063715018a6146101365780638da5cb5b1461014d578063f2fde38b14610178576100a0565b366100a0577f6ef95f06320e7a25a04a175ca677b7052bdd97131872c2192525a629f51be7706100876101a1565b346040516100969291906111c5565b60405180910390a1005b600080fd5b3480156100b157600080fd5b506100cc60048036038101906100c79190610dd1565b6101a9565b005b3480156100da57600080fd5b506100f560048036038101906100f09190610da8565b6104bb565b60405161010291906112f0565b60405180910390f35b34801561011757600080fd5b5061012061054d565b60405161012d91906112f0565b60405180910390f35b34801561014257600080fd5b5061014b610557565b005b34801561015957600080fd5b506101626105df565b60405161016f91906111aa565b60405180910390f35b34801561018457600080fd5b5061019f600480360381019061019a9190610d56565b610608565b005b600033905090565b6101b16101a1565b73ffffffffffffffffffffffffffffffffffffffff166101cf6105df565b73ffffffffffffffffffffffffffffffffffffffff1614610225576040517f08c379a000000000000000000000000000000000000000000000000000000000815260040161021c90611270565b60405180910390fd5b6000835111610269576040517f08c379a000000000000000000000000000000000000000000000000000000000815260040161026090611290565b60405180910390fd5b81518351146102ad576040517f08c379a00000000000000000000000000000000000000000000000000000000081526004016102a490611250565b60405180910390fd5b6000805b84518110156104975760018482815181106102f5577f4e487b7100000000000000000000000000000000000000000000000000000000600052603260045260246000fd5b6020026020010151111561041f57600061034f858381518110610341577f4e487b7100000000000000000000000000000000000000000000000000000000600052603260045260246000fd5b602002602001015185610700565b9050806001600082825461036391906113c6565b9250508190555080848684815181106103a5577f4e487b7100000000000000000000000000000000000000000000000000000000600052603260045260246000fd5b60200260200101516103b7919061144d565b6103c191906114a7565b836103cc91906113c6565b92506104198787848151811061040b577f4e487b7100000000000000000000000000000000000000000000000000000000600052603260045260246000fd5b60200260200101518361072e565b50610484565b826001600082825461043191906113c6565b9250508190555061048386868381518110610475577f4e487b7100000000000000000000000000000000000000000000000000000000600052603260045260246000fd5b60200260200101518561072e565b5b808061048f90611568565b9150506102b1565b5060008111156104b4576104b3856104ad6105df565b8361072e565b5b5050505050565b60008173ffffffffffffffffffffffffffffffffffffffff166370a08231306040518263ffffffff1660e01b81526004016104f691906111aa565b60206040518083038186803b15801561050e57600080fd5b505afa158015610522573d6000803e3d6000fd5b505050506040513d601f19601f820116820180604052508101906105469190610e64565b9050919050565b6000600154905090565b61055f6101a1565b73ffffffffffffffffffffffffffffffffffffffff1661057d6105df565b73ffffffffffffffffffffffffffffffffffffffff16146105d3576040517f08c379a00000000000000000000000000000000000000000000000000000000081526004016105ca90611270565b60405180910390fd5b6105dd600061080a565b565b60008060009054906101000a900473ffffffffffffffffffffffffffffffffffffffff16905090565b6106106101a1565b73ffffffffffffffffffffffffffffffffffffffff1661062e6105df565b73ffffffffffffffffffffffffffffffffffffffff1614610684576040517f08c379a000000000000000000000000000000000000000000000000000000000815260040161067b90611270565b60405180910390fd5b600073ffffffffffffffffffffffffffffffffffffffff168173ffffffffffffffffffffffffffffffffffffffff1614156106f4576040517f08c379a00000000000000000000000000000000000000000000000000000000081526004016106eb90611210565b60405180910390fd5b6106fd8161080a565b50565b6000600a60098385610712919061144d565b61071c919061144d565b610726919061141c565b905092915050565b6107366101a1565b73ffffffffffffffffffffffffffffffffffffffff166107546105df565b73ffffffffffffffffffffffffffffffffffffffff16146107aa576040517f08c379a00000000000000000000000000000000000000000000000000000000081526004016107a190611270565b60405180910390fd5b6107b58383836108ce565b8273ffffffffffffffffffffffffffffffffffffffff167fd62cc640a89963d84623214ae1eee8bb336a2773b741e8b3899a4e6f1bd4a22e83836040516107fd9291906111c5565b60405180910390a2505050565b60008060009054906101000a900473ffffffffffffffffffffffffffffffffffffffff169050816000806101000a81548173ffffffffffffffffffffffffffffffffffffffff021916908373ffffffffffffffffffffffffffffffffffffffff1602179055508173ffffffffffffffffffffffffffffffffffffffff168173ffffffffffffffffffffffffffffffffffffffff167f8be0079c531659141344cd1fd0a4f28419497f9722a3daafe3b4186f6b6457e060405160405180910390a35050565b61094f8363a9059cbb60e01b84846040516024016108ed9291906111c5565b604051602081830303815290604052907bffffffffffffffffffffffffffffffffffffffffffffffffffffffff19166020820180517bffffffffffffffffffffffffffffffffffffffffffffffffffffffff8381831617835250505050610954565b505050565b60006109b6826040518060400160405280602081526020017f5361666545524332303a206c6f772d6c6576656c2063616c6c206661696c65648152508573ffffffffffffffffffffffffffffffffffffffff16610a1b9092919063ffffffff16565b9050600081511115610a1657808060200190518101906109d69190610d7f565b610a15576040517f08c379a0000000000000000000000000000000000000000000000000000000008152600401610a0c906112d0565b60405180910390fd5b5b505050565b6060610a2a8484600085610a33565b90509392505050565b606082471015610a78576040517f08c379a0000000000000000000000000000000000000000000000000000000008152600401610a6f90611230565b60405180910390fd5b610a8185610b47565b610ac0576040517f08c379a0000000000000000000000000000000000000000000000000000000008152600401610ab7906112b0565b60405180910390fd5b6000808673ffffffffffffffffffffffffffffffffffffffff168587604051610ae99190611193565b60006040518083038185875af1925050503d8060008114610b26576040519150601f19603f3d011682016040523d82523d6000602084013e610b2b565b606091505b5091509150610b3b828286610b5a565b92505050949350505050565b600080823b905060008111915050919050565b60608315610b6a57829050610bba565b600083511115610b7d5782518084602001fd5b816040517f08c379a0000000000000000000000000000000000000000000000000000000008152600401610bb191906111ee565b60405180910390fd5b9392505050565b6000610bd4610bcf8461133c565b61130b565b90508083825260208201905082856020860282011115610bf357600080fd5b60005b85811015610c235781610c098882610c99565b845260208401935060208301925050600181019050610bf6565b5050509392505050565b6000610c40610c3b84611368565b61130b565b90508083825260208201905082856020860282011115610c5f57600080fd5b60005b85811015610c8f5781610c758882610d2c565b845260208401935060208301925050600181019050610c62565b5050509392505050565b600081359050610ca88161164f565b92915050565b600082601f830112610cbf57600080fd5b8135610ccf848260208601610bc1565b91505092915050565b600082601f830112610ce957600080fd5b8135610cf9848260208601610c2d565b91505092915050565b600081519050610d1181611666565b92915050565b600081359050610d268161167d565b92915050565b600081359050610d3b81611694565b92915050565b600081519050610d5081611694565b92915050565b600060208284031215610d6857600080fd5b6000610d7684828501610c99565b91505092915050565b600060208284031215610d9157600080fd5b6000610d9f84828501610d02565b91505092915050565b600060208284031215610dba57600080fd5b6000610dc884828501610d17565b91505092915050565b60008060008060808587031215610de757600080fd5b6000610df587828801610d17565b945050602085013567ffffffffffffffff811115610e1257600080fd5b610e1e87828801610cae565b935050604085013567ffffffffffffffff811115610e3b57600080fd5b610e4787828801610cd8565b9250506060610e5887828801610d2c565b91505092959194509250565b600060208284031215610e7657600080fd5b6000610e8484828501610d41565b91505092915050565b610e96816114db565b82525050565b6000610ea782611394565b610eb181856113aa565b9350610ec1818560208601611535565b80840191505092915050565b6000610ed88261139f565b610ee281856113b5565b9350610ef2818560208601611535565b610efb8161163e565b840191505092915050565b6000610f136026836113b5565b91507f4f776e61626c653a206e6577206f776e657220697320746865207a65726f206160008301527f64647265737300000000000000000000000000000000000000000000000000006020830152604082019050919050565b6000610f796026836113b5565b91507f416464726573733a20696e73756666696369656e742062616c616e636520666f60008301527f722063616c6c00000000000000000000000000000000000000000000000000006020830152604082019050919050565b6000610fdf602a836113b5565b91507f6163636f756e747320616e6420736861726573206d757374206265206f66207360008301527f616d65206c656e677468000000000000000000000000000000000000000000006020830152604082019050919050565b60006110456020836113b5565b91507f4f776e61626c653a2063616c6c6572206973206e6f7420746865206f776e65726000830152602082019050919050565b6000611085602e836113b5565b91507f72657175697265206174206c656173742031206163636f756e7473202620736860008301527f6172657320746f207265776172640000000000000000000000000000000000006020830152604082019050919050565b60006110eb601d836113b5565b91507f416464726573733a2063616c6c20746f206e6f6e2d636f6e74726163740000006000830152602082019050919050565b600061112b602a836113b5565b91507f5361666545524332303a204552433230206f7065726174696f6e20646964206e60008301527f6f742073756363656564000000000000000000000000000000000000000000006020830152604082019050919050565b61118d8161152b565b82525050565b600061119f8284610e9c565b915081905092915050565b60006020820190506111bf6000830184610e8d565b92915050565b60006040820190506111da6000830185610e8d565b6111e76020830184611184565b9392505050565b600060208201905081810360008301526112088184610ecd565b905092915050565b6000602082019050818103600083015261122981610f06565b9050919050565b6000602082019050818103600083015261124981610f6c565b9050919050565b6000602082019050818103600083015261126981610fd2565b9050919050565b6000602082019050818103600083015261128981611038565b9050919050565b600060208201905081810360008301526112a981611078565b9050919050565b600060208201905081810360008301526112c9816110de565b9050919050565b600060208201905081810360008301526112e98161111e565b9050919050565b60006020820190506113056000830184611184565b92915050565b6000604051905081810181811067ffffffffffffffff821117156113325761133161160f565b5b8060405250919050565b600067ffffffffffffffff8211156113575761135661160f565b5b602082029050602081019050919050565b600067ffffffffffffffff8211156113835761138261160f565b5b602082029050602081019050919050565b600081519050919050565b600081519050919050565b600081905092915050565b600082825260208201905092915050565b60006113d18261152b565b91506113dc8361152b565b9250827fffffffffffffffffffffffffffffffffffffffffffffffffffffffffffffffff03821115611411576114106115b1565b5b828201905092915050565b60006114278261152b565b91506114328361152b565b925082611442576114416115e0565b5b828204905092915050565b60006114588261152b565b91506114638361152b565b9250817fffffffffffffffffffffffffffffffffffffffffffffffffffffffffffffffff048311821515161561149c5761149b6115b1565b5b828202905092915050565b60006114b28261152b565b91506114bd8361152b565b9250828210156114d0576114cf6115b1565b5b828203905092915050565b60006114e68261150b565b9050919050565b60008115159050919050565b6000611504826114db565b9050919050565b600073ffffffffffffffffffffffffffffffffffffffff82169050919050565b6000819050919050565b60005b83811015611553578082015181840152602081019050611538565b83811115611562576000848401525b50505050565b60006115738261152b565b91507fffffffffffffffffffffffffffffffffffffffffffffffffffffffffffffffff8214156115a6576115a56115b1565b5b600182019050919050565b7f4e487b7100000000000000000000000000000000000000000000000000000000600052601160045260246000fd5b7f4e487b7100000000000000000000000000000000000000000000000000000000600052601260045260246000fd5b7f4e487b7100000000000000000000000000000000000000000000000000000000600052604160045260246000fd5b6000601f19601f8301169050919050565b611658816114db565b811461166357600080fd5b50565b61166f816114ed565b811461167a57600080fd5b50565b611686816114f9565b811461169157600080fd5b50565b61169d8161152b565b81146116a857600080fd5b5056fea2646970667358221220766b72887d543caad4a55831d4bf6b795ae2bf0fc8fb507c154d8e7684b85d7164736f6c63430008000033",
  "linkReferences": {},
  "deployedLinkReferences": {}
}